:020000040000FA
:1000000058EF00F0D9CFE5FFE1CFD9FF00C0E5FF01
:1000100001C0E5FF02C0E5FF03C0E5FF04C0E5FF46
:1000200005C0E5FF06C0E5FF07C0E5FF020EDBCF18
:1000300000F0030EDBCF01F0040EDBCF02F0050E63
:10004000DBCF03F000C004F001C005F002C006F0F1
:1000500003C007F0FF0E00260122022203220450F3
:1000600005100610071011E04A0E046E010E056E11
:10007000066A076AFF0E042605220622072204509C
:10008000051006100710F6E1DDD7E4CF07F0E4CF46
:1000900006F0E4CF05F0E4CF04F0E4CF03F0E4CFC2
:1000A00002F0E4CF01F0E4CF00F0E4CFD9FF12007A
:1000B00017EEFFF027EEFFF0F86AA68EA69C07EE7B
:1000C000FFF00068ED6A0050FDE15A0EF66E010E79
:1000D000F76E000EF86E0900F5CF05F00900F5CFB8
:1000E00006F034D00900F5CF00F00900F5CF01F09B
:1000F0000900F5CF02F009000900F5CFE9FF09007A
:10010000F5CFEAFF090009000900F5CF03F0090067
:10011000F5CF04F009000900F6CF07F0F7CF08F09B
:10012000F8CF09F000C0F6FF01C0F7FF02C0F8FFEA
:1001300003D00900F5CFEEFF0306FBE20406F9E267
:1001400007C0F6FF08C0F7FF09C0F8FF0506CAE2BE
:100150000606C8E2B4EC00F0FFD701007001000011
:100160006000000001000000946A0F0E826E120011
:0201700000008D
:020000040030CA
:010006008574
:00000001FF
